:020000023000CC
:10C00000803F0020B5F70300F5F70300F7F70300C2
:10C010000000000000000000000000000000000020
:10C0200000000000000000000000000059E30300D1
:10C030000000000000000000FBF70300FDF7030014
:10C04000FFF70300FFF70300FFF70300FFF703000C
:10C05000FFF7030000000000FFF70300FFF70300F5
:10C06000FFF70300FFF70300FFF70300FFF70300EC
:10C07000FFF70300FFF70300FFF70300FFF70300DC
:10C08000FFF70300A9C40300FFF70300FFF7030055
:10C0900065C50300FFF7030025F70300FFF7030062
:10C0A000FFF70300FFF7030000000000000000009E
:10C0B0000000000000000000000000000000000080
:10C0C00010B5064C2378002B07D1054B002B02D06E
:10C0D000044800E000BF0123237010BD702C002035
:10C0E00000000000B0F90300044B10B5002B03D092
:10C0F0000349044800E000BF10BDC0460000000036
:10C10000742C0020B0F90300164B002B00D1144B07
:10C110009D46402292029A1A924600218B460F4673
:10C120001348144A121A00F065F80F4B002B00D088
:10C1300098470E4B002B00D09847002000210400A8
:10C140000D000D48002802D00C4800E000BF00F0B0
:10C150002DF82000290002F0C1F900F011F8C046C6
:10C1600000000800803F00200000000000000000E8
:10C17000702C00205C340020000000000000000053
:10C18000084B10B50400002B02D0002100E000BFD6
:10C19000054B1868836A002B00D09847200000F0F8
:10C1A00031F8C0460000000088F9030070B5002691
:10C1B0000C4D0D4C641BA410A64209D1002603F0BF
:10C1C000D7FB0A4D0A4C641BA410A64205D170BDD2
:10C1D000B300EB5898470136EEE7B300EB589847A9
:10C1E0000136F2E7682C0020682C0020682C002023
:10C1F0006C2C002003001218934200D17047197074
:10C200000133F9E7FEE7C0461FB5002101AA90609F
:10C2100003481180516000F005F805B000BDC0462C
:10C2200001400000BFF34F8F034B044ADA60BFF3B5
:10C230004F8FC046FDE7C04600ED00E00400FA0560
:10C24000032310B513400724002B10D1094C2260A2
:10C250004C1CE400A4B21219074C22601C00074ACF
:10C260001370074A1370074A1080074A1180200094
:10C2700010BDC046942C0020902C00208C2C002057
:10C280009C2C0020982C00209A2C0020F0B5284BE4
:10C2900085B01B8800900D00019209208B4241D38C
:10C2A000002402ABDE1D3000347000F031FC214B65
:10C2B00021481B78214ADBB29C4603781188DBB207
:10C2C00022008B4201D20133DAB21D4F3C0094456B
:10C2D00009D0047803780022DBB2994201D90133F6
:10C2E000DAB2154B1A70307800F030FC0420BC42F2
:10C2F00018D0144F019A3B68E6009B191A60009A07
:10C30000002A11D0002D0FD0094B2A0018880E4B9F
:10C31000444318680099001903F021FB00203B6892
:10C320009E19B58005B0F0BD00209880FAE7C046A0
:10C33000982C00209C2C00208C2C00209A2C002073
:10C34000FFFF0000942C0020902C002010B5104A14
:10C35000104B11781B78994219D00F491078137837
:10C360000C88DBB2C0B200219C4201D90133D9B2A2
:10C370000A4B11701B68C2009B18094A99881288E1
:10C380001B685043074A126810189847DFE710BD32
:10C390009C2C00208C2C00209A2C0020942C002017
:10C3A000982C0020902C00208022194B9202DA67F2
:10C3B000D2218022174B520289005A5040395A50DC
:10C3C00001212F22596010000138C046C046C046E6
:10C3D000C046C046C046C046C046C046C046C0462D
:10C3E000C046F1D1996000230B4910000B60013861
:10C3F000C046C046C046C046C046C046C046C0460D
:10C40000C046C046C046C046F1D1044A13707047CA
:10C4100004E100E000100140B42C0020A52C002015
:10C4200010B54378020001338078DBB2984200D126
:10C430000023147800209C4205D00B7053781830EC
:10C4400043435068C01810BDEFF30583DB05DB0DD7
:10C450000220002B1CD0103B5AB2DBB21900013075
:10C4600001408140002A14DA0F221340083B9B0848
:10C470000B4A9B009B185B68CB409B090340DBB2D7
:10C480000020012B04D0033B1800431E98410130CB
:10C4900070479208C032034B9200D358ECE7C04675
:10C4A00018ED00E000E100E0F8B50024234B5C64E7
:10C4B0009C64DC641C655C609C60214B1B68A3422F
:10C4C00033D0204A20498D58204A1268AD1A2D02D7
:10C4D0002D0A1A68AA4215D8AD1AA4181A7CDE696A
:10C4E000002A0DD000221A74194A996917685A69EE
:10C4F000002F1DD01000B847002801D0FFF784FEA0
:10C50000002E13D1134B144A197813788B4204D19F
:10C510000133DBB2022B0ED0137013780F4A9B004D
:10C520009C5080220E4B52035A60F8BD3300D0E776
:10C5300008009047E4E70023EEE7C046FC10014006
:10C54000BC2C00200405000000100140B42C002089
:10C55000A02C0020B02C0020B12C0020A82C002002
:10C56000FCE100E0F0B5BA49BA4A0B68BA488BB0B2
:10C5700004931478037800229C4200D1C7E0013371
:10C58000DBB2022B00D1C0E003700378B34A9B00FA
:10C590009A58049B9B181B021B0A0B6001230093F3
:10C5A00000250124AE4B08951B680593AD4B1B7805
:10C5B0000193AD4B01991B6802910693A44B1B6834
:10C5C0000793AA4B1B780993059B02990139C9B2BD
:10C5D0000291FF2900D09CE00899002905D0A349C9
:10C5E000099808709A49079808609D49002D00D065
:10C5F0000B600B680099002900D0DAE0059A00254D
:10C60000D31A5A1E9341DBB20093954B1B680493D7
:10C61000964B049A1B7807938D4B1B68029300235B
:10C620000393019B013BDBB20193FF2B00D0C5E0DC
:10C6300003998B4B002900D01A601B68049A9A4218
:10C6400003D1009A002A00D15AE0002B00D13DE12D
:10C650001B68874A874C009315590299864E691AC0
:10C6600009023078090A033100281FD18020D12720
:10C670004002BF00D051403FD051C02380277F48A7
:10C68000BF025B00C750076001272F2017600138E9
:10C69000C046C046C046C046C046C046C046C0466A
:10C6A000C046C046C046C046F1D13770009B8B42A1
:10C6B00000D20B00A8200299C0005B181B021B0AC5
:10C6C00013501159491B0902090A5D1B2D02033140
:10C6D0002D0AA94214D9135913502F200138C046EE
:10C6E000C046C046C046C046C046C046C046C0461A
:10C6F000C046C046C046F1D18022614B92025A60CA
:10C7000000225A4B1A700BB0F0BD02703DE7009248
:10C7100046E70299C8000699091803910978039819
:10C7200046788E4200D150E7182603984E4347685A
:10C730000131BE198778C9B28F4200D10021377804
:10C74000022F08D0032FEAD1002BE8D000251D745A
:10C75000DB692500F8E777689C461E00002EDED0D6
:10C76000B74200D1B5E0B446F669F7E71C689442D9
:10C7700006D9002901D03A490B60A21A1A6044E791
:10C78000121B0019DC681E60DF69002C07D0DD6118
:10C790001D0004999C6009180902090A59603B00B0
:10C7A0000099002BE2D1002900D12EE72C4A13601A
:10C7B0002BE700210D0008000E00F2E70026019B88
:10C7C000D800069B1818002D23D144780378A34283
:10C7D00000D126E718215943476801337918877833
:10C7E000DBB203709F4200D106700B78012BEDD1B4
:10C7F0004B681F7C002FE9D18C685C60CC689C6022
:10C800000C69DC60496999610799002903D05F6070
:10C8100001E02B00ED695968029C05910C1B194938
:10C820002402240A9F688C422ED8E4191C6001213E
:10C830005E609E601974DE61002A06D01C68116873
:10C840008C4240D80C1B1460DA610122039238E05C
:10C85000B42C0020B12C0020B02C0020A82C0020EB
:10C86000BC2C0020B82C0020C02C0020A42C0020C0
:10C870000010014004050000A52C002000E100E0AC
:10C88000FCE100E0FEFF7F000299059C091B090204
:10C89000090AB94202D27F1A1F60C8E71E60C6E7C4
:10C8A000E41BCF698C46002F07D039000F68A742E0
:10C8B000F6D33F1B0F600F0061461C60DF61CB6148
:10C8C00013001A007FE794461100EFE7FFF76CFDB5
:10C8D00016E7674509D1DB692500002B05D1084D16
:10C8E000AC60250007930894099466463868FF6990
:10C8F000F761002F00D112E73E6836183E600EE760
:10C9000000100140F0B50327150085B00290019199
:10C91000039314003D400720002D03D1224E002A2E
:10C9200002D1326005B0F0BDFFF73EFD1F4B039A08
:10C9300001991A601E4B18221F70230018334A43B6
:10C94000190034600198636025706570A070083428
:10C950009B188C42F6D18020C022C524FF21154BA4
:10C9600040031D60144B52001D70144BA4001D7039
:10C97000134B98501A598A431100C0220A431A5186
:10C98000A122186002990F48D2008150043C1A5924
:10C990000D491140C02212020A431A510B4BC258D2
:10C9A0000B4B00201A60BDE7C02C0020A02C0020FB
:10C9B000B82C0020BC2C0020B02C0020B12C002072
:10C9C00000E100E000100140FF00FFFF040500004F
:10C9D000B42C002010B50A4B1C680823002C0CD086
:10C9E000013B002A09D0002807D000680133047CED
:10C9F000002C02D1230041744261180010BDC046D2
:10CA0000C02C0020F0B51C4B85B01E6804000D0042
:10CA100001920820002E2DD0002C2BD001380429A3
:10CA200028D963690130002B24D0637C0F00012BCF
:10CA300000D00027FFF708FDC00002AB3618D91D53
:10CA40003000FFF7EDFC03000420002B12D0012280
:10CA50000A491A700A4A5C608A5800209A60019A52
:10CA6000DD605A6180221F6102ABDB795203737073
:10CA7000044B5A6005B0F0BDC02C002000100140EE
:10CA800004050000FCE100E0F7B5134B05001C684D
:10CA90000823002C1DD000281BD04269002A18D082
:10CAA00000260674FFF7D0FC6B46C000DF1D24187B
:10CAB00039002000FFF7B4FC0423B04209D08022E3
:10CAC000023B03703B7845606370044B52035A602D
:10CAD00033001800FEBDC046C02C0020FCE100E081
:10CAE00010B50400082902D00020FFF78DFB236851
:10CAF0006068984710BD000007B5044A0090019196
:10CB000068460821FFF7C2FB0EBDC046E1CA03001C
:10CB100070B5EFF3108672B6094B012259680029EF
:10CB20000BD1084C5A60E26F074D2A401A60E56746
:10CB30000170002E00D162B670BD0270F9E7C046E8
:10CB40005434002004E100E0FC06FFBC10B5084BA3
:10CB50005A68002A0BD0002809D1EFF3108272B670
:10CB600004491C680C605860002A00D162B610BDF0
:10CB70005434002000E100E048DF704711DF7047C7
:10CB800013DF704710B5074B1878012803D101292E
:10CB900001D101311970002A02D01000FFF734FBD7
:10CBA00010BDC046CC2C002010B5FFF7E5FF0028D3
:10CBB00001D0FFF729FBFFF7C9FB034B1B78023BB2
:10CBC000022BF2D810BDC046CC2C002010B50A4C68
:10CBD0001C21200000F035FF002801D0FFF714FBD6
:10CBE00000231C220549200000F01CFF002801D072
:10CBF000FFF70AFB10BDC046C42C0020D02C00203B
:10CC000007B50368013301D100200EBD01A800F073
:10CC100049F9019B1A78012AF6D100205A888242EC
:10CC200005D09968054B0200186800F05FF9019B78
:10CC30005B88181A42425041C0B2E6E70830000053
:10CC4000844684B0F0B585B01D000D936346C4B230
:10CC50000A901B0C03A80F000B9116000C92019375
:10CC600000F020F9002C0AD1374B019AFF215A809D
:10CC700001229D601A701971344B1A7012E0012C58
:10CC800017D1314B019ADF605A80BA1952199A6054
:10CC9000A5221A705A321A710E9A1E615D619A614C
:10CCA0002A4B1C70FFF792FF05B0F0BC08BC04B023
:10CCB0001847032C0FD1039A234B11781970518810
:10CCC000926859809A60AA22DF601A711E615D61C4
:10CCD000A93A1E4BD1E7022C18D1039A1A4B1178AE
:10CCE000A5290DD100225A809A60FF321A70FF22C6
:10CCF0001A710022DA601A615A61144B0132BCE7E2
:10CD000019705188926859809A60F0E7052C09D112
:10CD100001F0A0F9002801D0FFF776FA03220B4BAF
:10CD20001A70C1E7042C09D10022074B5A809A607F
:10CD3000FF321A70039A12791A71B3E7062CB3D135
:10CD4000024B0422ECE7C046D02C0020CC2C002063
:10CD50001FB50822002102A8FFF74CFA074B0193E8
:10CD600000F028FE002806D1FF2305499B0201A8F8
:10CD70004B6000F043FE05B000BDC04685CB03000C
:10CD8000C42C002010B500F0E7F9041E04D101F016
:10CD900099F80400FFF708FF200010BD10B5FFF759
:10CDA000EDFE002801D0FFF72FFA0C4B0120196887
:10CDB00000230B4C02009A40114200D0E26701337D
:10CDC000202BF7D1074C2068FFF7DAFE002801D0AE
:10CDD000FFF71AFA206800F06BF810BD00E100E0E0
:10CDE00004E100E00830000007B501A800F05AF89F
:10CDF000019B01201A78A52A04D01879AA38434249
:10CE00005841C0B20EBD10B500F0B4FB002815D0DB
:10CE1000642000F0E7FC00F023FB002801D0FFF7BE
:10CE2000F3F900F0A7FB002801D0FFF7EDF900F0BF
:10CE300065FB041E06D0FFF7E7F903E000F07AFB7C
:10CE4000041EE5D1200010BD10B588B003AC14223B
:10CE500000212000FFF7CEF90223237000230434C1
:10CE6000009303980ECCFFF7EBFEFFF79DFE00202A
:10CE700008B010BD13B5040001A800F013F8019B21
:10CE80001A7822705A8862809A68A2601A79227190
:10CE9000DA68E2601A6922615A6962619B69A3617A
:10CEA00013BD0000014B03607047C04600FC030047
:10CEB000F0B50300186880F308885868FF2464B24E
:10CEC000EFF30585002D01D1A6460047251C061C61
:10CED00021273FBAF0B40024002500260027F0B433
:10CEE000F92040B20047C046F0BDC04610B5002A48
:10CEF00007D01388FF2241185201884203D118003D
:10CF000010BD094BF6E704785BBA9BB26340DCB214
:10CF100024095C40230363401BB25C01144063405E
:10CF20009BB20130E9E7C046FFFF000018DF704701
:10CF3000F8B50D0014001E00012907D0032912D0F6
:10CF4000002C02D02000FFF75FF9F8BD0E4B1B78D4
:10CF5000052BF5D10D4B1B68002BF1D032002100C1
:10CF600004209847ECE7084F3B78022BE8D1084BA8
:10CF70005B689847054B3D701B68002BE0D0320082
:10CF800021002800EDE7C046F42C0020EC2C002006
:10CF9000182D0020012200B5074B89B01A7003AB91
:10CFA00004321A70079A039800920499059A069B16
:10CFB000FFF746FE09B000BDF52C0020032300B5A5
:10CFC00089B003A80370074B1B884380064B079862
:10CFD00059689A68DB6800900398FFF731FE0020DB
:10CFE00009B000BD242D0020702D0020012200B5C5
:10CFF00089B003AB1A70084A12885A80074B03980D
:10D000001B680093064B59689A68DB68FFF718FEA7
:10D01000002009B000BDC046242D002008300000CB
:10D02000702D002010B588B003AC14220021200020
:10D03000FFF7E0F8042323700023043400930398DF
:10D040000ECCFFF7FDFD08B010BD000030B5002587
:10D0500089B003AC142200212000FFF7CBF8084B65
:10D0600022691B8825706380064B0398DB68E360A8
:10D0700000926168A268FFF7E3FD280009B030BDA7
:10D08000242D0020702D00200222074B074810B5E8
:10D090001860074B1A70074B196800F0D2FC002883
:10D0A00001D0FFF7B1F810BD882D0020802D0020A1
:10D0B000F42C0020282D002010B50C4B08241B78E0
:10D0C000002B11D10A4C2000FFF7DEFC002801D014
:10D0D000FFF79AF8F021200000228903FFF792FC65
:10D0E000041E01D0FFF790F8200010BDF52C0020A1
:10D0F000F82C0020F0B51F00032385B00600019036
:10D10000940868460D00009302910394FFF70EFF08
:10D1100000281ED080235B019D4212D8012368465F
:10D120000093019602950394FFF700FF002810D1A9
:10D13000032368460093019602950394FFF7F6FED9
:10D1400007E0E91BF01B3B003A00FFF7D3FF002884
:10D15000E4D005B0F0BD0000F0B5002585B0082290
:10D16000002102A8FFF746F8174B184F0193184B00
:10D1700039001D70174B01A81D8000F03FFC164EB2
:10D180000400A84203D03570200005B0F0BD134B59
:10D1900001001B68124A13487B60FFF71BFC002844
:10D1A00001D0FFF731F8F021002289030E48FFF784
:10D1B00029FC002801D0FFF727F800220B4B1A604A
:10D1C00001233370E0E7C04631CF0300802D0020FB
:10D1D0006C2D0020242D0020F42C002008300000AD
:10D1E00095CF03008CF90300F82C0020F02C0020D0
:10D1F000014B18607047C046EC2C0020224B70B5E4
:10D200001900426831CA31C112680A6019784A07A8
:10D2100002D506248A072FD103255A6806242A42FC
:10D220002AD19868284227D1DE682E4224D11318CB
:10D23000F0229B19154E92013360241990421BD89D
:10D24000134A1068F0229202121A934214D8114D18
:10D25000114B2B60114B6B60CB070FD5104BAB60A4
:10D26000104B08241B78012B06D1FFF725FF041E65
:10D2700002D12B6830689847200070BD8B0701D51C
:10D28000094BECE7094BEAE7702D0020282D002020
:10D2900008300000182D002089D0030025D003009D
:10D2A000EDCF0300F42C0020BDCF03004DD00300D0
:10D2B000F8B506000E20002E14D0B36802309B078C
:10D2C00010D1144B1B78052B22D17368124D134FCC
:10D2D0009C002B683A68E318934204D901235B420F
:10D2E0002B600438F8BDFFF7E7FE0028FAD10C48A0
:10D2F0002B682200B168006800F094FB0028F1D18F
:10D300002B68E4183B682C609C42EBD00920E9E7CD
:10D310000820E7E7F42C0020F02C0020282D002026
:10D32000882D002070B50A4B08201D68002D0CD1F7
:10D33000084E3378042B08D1074C0848217800F0B8
:10D340004DF9002802D10523337070BD2570FCE72C
:10D35000F02C0020F42C00206C2D00202C2D00201F
:10D36000F8B5144B07001A78032A03D0042A03D017
:10D3700008241AE004221A700F4B08241B68002BA3
:10D3800013D1FFF799FE041E0FD17B680B4E9D0051
:10D3900033785A19402A0AD809482A00C018B968AF
:10D3A00002F0DDFA33785D1935702000F8BD0924EC
:10D3B000FBE7C046F42C0020F02C00206C2D002050
:10D3C0002C2D002070B50E4C08202378052B16D18B
:10D3D0000C4D0D4B2A681B68082093420FD1062381
:10D3E0002370FFF769FE002809D1084B29681B68E4
:10D3F000586800F035F9002801D10723237070BD6B
:10D40000F42C0020282D0020F02C0020882D002056
:10D4100010B5084B08201B78072B09D10648FFF7E9
:10D4200033FB002801D0FEF7EFFE044B9B689847C2
:10D4300010BDC046F42C0020F82C0020182D002030
:10D44000062200B589B003AB1A70079A03980092C0
:10D450000499059A069BFFF7F3FB09B000BD000095
:10D46000F0B58FB007A8FFF705FD00200A9C8442A5
:10D4700018D080230D9D5B01E318AB422DD91D4BC5
:10D48000EB1801935F081C4B1B689C420CD80123CE
:10D490000199994380235B016818621AC9183B00FF
:10D4A000FFF728FE0FB0F0BD802301265B01FB18BB
:10D4B00003A80396049305930696FFF737FD00280B
:10D4C000F0D1802303A85B0103960493059306968D
:10D4D000FFF72CFD0028E5D1D9E701230393802332
:10D4E000A4085B0103A8049505930694FFF71EFDAD
:10D4F000D8E7C04600F0FFFF0830000000B58DB04F
:10D5000005A8FFF7B7FC099800280CD0089B002B52
:10D510000BD1074B1B6800228008039001A80192E1
:10D520000293FFF703FD0DB000BD0B9A9B18F2E7C5
:10D530000830000000B58DB005A8FFF79BFC0998E6
:10D5400000280FD0089B002B0ED1094B1B6803222B
:10D550000192F02280089202049001A802920393A3
:10D56000FFF7E4FC0DB000BD0B9A9B18EFE7C04637
:10D570000830000030B58DB005A8FFF77BFC089897
:10D58000002816D080250B9C6D014319A34212D9A7
:10D59000104B1B6898421AD80F4B0121E3181A0050
:10D5A0008A431100A4185B08821A49192000FFF76A
:10D5B000A1FD0DB030BD03230193802380085B01E2
:10D5C000049001A802930394FFF7B0FCF1E70E204A
:10D5D000EFE7C0460830000000F0FFFF70B5040020
:10D5E00009200B291ED92389611805335B00E31834
:10D5F000CA1AD2B2012A15D98B4213D8190013487E
:10D6000002F0ADF9124B134A1988914203D02588D4
:10D610000B208D4206D15B8893420FD062880B208D
:10D620009A420BD070BD5A00A2185289824203D090
:10D630002E880133B24205D10020F3E7002321896F
:10D640000548064D9942EED80B20EBE78C2D0020C3
:10D6500080100010FFFF0000FEFF00000C300000F3
:10D66000002210B5FFF742FC05494A780B781202F8
:10D6700013430B22984200D10022100010BDC04677
:10D680008C2D00200020064B064A1870064B1A60AD
:10D69000082298605A60D860186158619861704794
:10D6A000962D0020982D0020B82E002030B50E2297
:10D6B00000291ED00025104B0D605C680A3AAC4270
:10D6C00017D00832202814D82420DA68013C01320F
:10D6D000DA601A695C6050431C68201808600121F8
:10D6E0009140986901320143996107210A401A610A
:10D6F0002A00100030BDC046B82E0020F0B5204BE7
:10D7000085B09A6804259446002A36D061465A6945
:10D710000335541A2C4021001F6824264E43BE199D
:10D72000B04212D101228A409869002542409A6194
:10D730000A000126072799699219019159683A4010
:10D7400002910020614603920AE0013129408A4299
:10D75000E3D11025EDE700290BD03000039C0139FF
:10D76000029A6244571A3200A2401400019A2242DF
:10D77000F1D0002801D099605F60280005B0F0BDAD
:10D78000B82E00200721054A13691268013B0B409F
:10D790001D314B43D318186200207047B82E00206B
:10D7A00030B50E22002818D0002916D00C4B0A3AAA
:10D7B000DC68002C11D0013CDC6024249A681D68D0
:10D7C00001329A605A6954432C190460206A01326C
:10D7D000086007210A405A610022100030BDC0468F
:10D7E000B82E002082B00190019B002B01D102B025
:10D7F0007047019B0848013B01930138C046C04671
:10D80000C046C046C046C046C046C046C046C046E8
:10D81000C046C046F1D1E7E7E703000029DF7047C3
:10D8200028DF70470B0037B5020018005D68DC6820
:10D8300009780095034DA40064590C305B69A0473A
:10D8400037BDC046D42E0020182370B5174C22785F
:10D850005343E3181A795869012A03D0032A19D0CF
:10D860000F2013E0124A996915689A68DB68AD02C7
:10D87000C018104B521B491928189A4207D8920811
:10D88000FFF7CCFF002801D10123A37070BD8022D7
:10D890005200F5E780235B05196989B201F0C4FFE6
:10D8A000034B1B68C018FFF7BBFFEBE7E02E00201F
:10D8B000D82F0020FF03000070B5134D06006C78D0
:10D8C00004200A2C19D028782418E4B2092C01D994
:10D8D0000A3CE4B2182044432C19A26122002671AC
:10D8E000103241C941C2A360049BE360AB78002BB6
:10D8F00004D000206B7801336B7070BDFFF7A4FF7C
:10D900001128F7D1F5E7C046E02E002070B5274C6E
:10D91000A378002B05D00026A670022802D0032889
:10D920003AD070BD182125782148694303686118F1
:10D930005A1C8B68026092029A4218D36378066080
:10D94000013B63706B1CDBB2092B22D823701823B8
:10D950005D43291D61180020FFF764FF00220321A9
:10D9600065192A71AA6029616A61AA61EA6063780F
:10D97000002BD6D0A378002BD3D1FFF765FF00286A
:10D98000CFD01128CDD01821237859430431611804
:10D9900008E02B00093BD9E718210D2023785943D3
:10D9A00004310919FFF73EFFBBE7C046E02E002017
:10D9B000D82F0020002303200B4A0C4913600C4A87
:10D9C0000B808B70F43113705360D060136153611E
:10D9D000936018329142F6D1064A00201360064A3D
:10D9E0001360536093607047D82F0020E02E002012
:10D9F000E42E0020D42F0020D42E002010B5074C98
:10DA000004222368032B07D05A1C0B602260016894
:10DA1000034A9B0099500022100010BDD42F002013
:10DA2000D42E002037B5CC180C4305001020A407D5
:10DA300006D100930F3813000A002900FFF73CFFBE
:10DA40003EBD07B500220B00009201000320FFF746
:10DA500033FF0EBD437802781B021A438378C078E7
:10DA60001B04134300061843704770DF704771DFD3
:10DA7000704773DF704774DF704776DF70477ADF77
:10DA800070477CDF70477FDF704786DF7047A7DF16
:10DA90007047A8DF7047A9DF7047AADF704767DFCC
:10DAA000704700B50C2813D801F0AAFE1412121208
:10DAB000121209120712120D0B00022000BD0320E2
:10DAC000FCE70420FAE7081F411E88410530F5E70E
:10DAD0000620F3E70120F1E70B091A005732092B62
:10DAE00001D830331A000F2319400B00027057334E
:10DAF000092900D8273B4370704710B5FEF784FB17
:10DB000010BD10B5040008000321FFF7CAFF032170
:10DB10000200200001F0FCFB002801D0FEF774FB9E
:10DB200010BD000070B50F4B90B09B7901AD02ACF9
:10DB3000AB700D4B06000021382220002B80FEF731
:10DB400059FB0223002123702000013BA170E670E5
:10DB50002381E56001F0FEF8002801D0FEF754FBB8
:10DB600010B070BD343000203015000010B50B002F
:10DB70001400032821D004280DD100290CD0124B09
:10DB80001888124B984206D01321FFF776FF002821
:10DB900001D0FEF739FB10BD1000FFF7AFFD0028E4
:10DBA00001D0FEF731FB0A4B1B689C42F3D10122E6
:10DBB0000321084801F0ACFBE9E701211800FFF759
:10DBC00070FF01210200F4E7602C0020FFFF00003D
:10DBD0007C30002034300020F0B5294B8BB01D780C
:10DBE000002D2ED1274C182229002000FEF702FB21
:10DBF000254B1E78002E3BD01022290002A8FEF7EC
:10DC0000F9FA102202A92148214E01F099FE071EBF
:10DC100019D10520FFF786FF012366602370277264
:10DC200027612000FFF725FF002801D0FEF7ECFA5E
:10DC3000A0228021174BD2050903D1500123104A9D
:10DC400013700BB0F0BD114B0122009301AB069392
:10DC50006B460196042006AE089332713273FFF7CB
:10DC600061FF022325702372E66028232361D8E731
:10DC70000620FFF757FF267066602672F5E7C0465C
:10DC800064300020DC2F002030300020FB2F0020EB
:10DC9000F42F00200C05000070B50400B0B001F0B6
:10DCA00049F921007A4801F065FB2388142B00D143
:10DCB000ACE02CD8102B59D004D8022B00D188E02E
:10DCC00030B070BD112B60D0132BF9D1714C03AE65
:10DCD0000722210007A801F042FEE11D10223000BA
:10DCE00001F03DFE210009AD18311C22280001F091
:10DCF00036FE694B694A1888852110AB1596149534
:10DD0000FFF7C1FE0028DBD0FEF77EFAD8E7512BE3
:10DD100065D01ED81A2B00D186E01B2BD0D1237AD8
:10DD2000002BCDD15E4A13705E4B1A68511E1960EC
:10DD300000294BD110AC14222000FEF75BFA05231A
:10DD4000237023690434009310980ECCFEF778FFFB
:10DD5000B6E7522B68D0552BB2D1A379002BAFD1A7
:10DD60004D4B13211888FFF788FECBE7A0238022B4
:10DD70004D49DB0512035A5004395A50A288464BCC
:10DD80001A800022464B1A709AE78023322109AA92
:10DD90001380444B80201960A021A123C905DB001A
:10DDA00000033D4CC8502088012310A9FFF775FEE1
:10DDB000002801D0FEF728FA3C4B1B78002B01D13C
:10DDC000FFF70AFF01235B42238079E7FFF704FF97
:10DDD00076E7314B00211888FFF761FE92E7A379BF
:10DDE000002B00D16CE7A27B043A022A00D967E736
:10DDF00010A9022B08D10B70C1235B008B80264B2E
:10DE00001888FFF746FE7DE70123F4E7214A208AC0
:10DE1000538D0021984201D1110018310732A0889A
:10DE20000023FFF732FE6DE71B4B214D1C88AC42EF
:10DE30002BD0204B1978002921D016490123082224
:10DE400034312000FFF727FE002800D05CE70200F5
:10DE5000010002232000FFF71EFE002800D053E738
:10DE60002A000C212000FFF712FE0222124BC318D9
:10DE7000934300D124E7082800D043E720E70B00B4
:10DE80000A002000FFF707FE3CE708203CE7C046F9
:10DE900034300020F42F0020602C0020723000204D
:10DEA00064300020642C00200C0500007730002036
:10DEB000FFFF000030300020FECFFFFF10B5FEF75F
:10DEC000A3F910BD0023534A70B51370524A0321C1
:10DED0001370A023514ADB0599509950A12280214B
:10DEE000D200090399508AB099504D4801F006FCC0
:10DEF000051E77D14B48FFF77BF9FFF7C3FB051EE3
:10DF000070D1494800F038FA03AC002800D06CE02A
:10DF10000122464B1A7011236A46454E137045493B
:10DF20000422200001F01BFD316804A8090AC9B2CF
:10DF3000FFF7D2FD122031686844C9B2FFF7CCFD6B
:10DF400000230922210068462372FFF79AFD00286A
:10DF500001D0FEF759F90822002101A8FEF74AF97D
:10DF6000354B01A80193C8235B040293FFF787FD9B
:10DF7000002801D0FEF748F900210C222000FEF70E
:10DF800039F9082323802D4B210063602C4B2D4849
:10DF9000A36001F02FF8002801D0FEF735F91C220C
:10DFA00000212000FEF726F9274A00236260802224
:10DFB000D201A26003220393E38123746361234BA4
:10DFC00020002273A36100F075FF002801D0FEF746
:10DFD0001BF930221E4B1A70293A5A7009329A7076
:10DFE000FFF7FAFD28000AB070BD2000FFF73FFDE3
:10DFF000002801D0FEF708F96378210001330020E2
:10E000006370FFF732FD002800D184E7FEF7FCF8CB
:10E0100081E7C04677300020713000204C070000B7
:10E0200099DC03006DDB0300F42F0020303000206A
:10E03000A400001090F903000C001800BDE00300DC
:10E04000BDDE030034300020CD0C0000FBDA0300FD
:10E0500072300020012210B5144B1A70144B18882E
:10E06000144B98420ED01321FFF707FD002801D072
:10E07000FEF7CAF800F056FF002801D0FEF7C4F8FA
:10E08000002010BD0C4C2378002BF3D0FFF7F3FCDD
:10E09000002801D0FEF7B8F8A022A1238021DB00E0
:10E0A000D2050903D15000232370E3E77730002025
:10E0B000602C0020FFFF000064300020F0B5050058
:10E0C000087889B00C00092826D801F0A3FB2E009F
:10E0D000360045000A0019002700F8000101480039
:10E0E0000601FFF76FF90421FFF7DBFC04210200B2
:10E0F000280001F00DF900280ED0FEF785F80BE09E
:10E10000FFF7A8FF002801D0FEF77EF8FFF780F99F
:10E11000002801D0FFF794F909B0F0BDFFF79AFF8E
:10E120000028F7D0FEF770F8F4E701226E4B1A7062
:10E130004B681A786D4B1A70EEE702266A4B1E7018
:10E140004B681B78012BE7D1FFF7ECF83100FFF7A4
:10E15000A8FC02003100CBE7634B0322EBE7624BE4
:10E160001E78022E28D0032E4CD0012ED4D104AF1D
:10E17000102200213800FEF73DF85C4B03221B788B
:10E1800001923B70002302970393237A0C2BE1D179
:10E1900064682000FFF75EFC7860201DFFF75AFCE2
:10E1A000B86020000830FFF755FCF86001A8FFF7C1
:10E1B00025F80028B0D0C9E703220B7A1A400ED008
:10E1C000991A0431C9B28C46180000276168461CB0
:10E1D0000F54F0B26045F9D19B1A04332372012326
:10E1E0000493636804A80693237A9B080593FFF7BA
:10E1F000B7F8002800D18FE70221FFF752FC022177
:10E20000020075E7087A32003042A3D1384E0190FF
:10E210003100FFF74BFA011E03D02800FFF771FC15
:10E220007AE76168019A306801F099FB0198FFF77D
:10E23000A9FA011EF1D101A93000FFF7B1FA011EC0
:10E24000EBD104230493019B04A89B080593336836
:10E250000693FFF72DF8071E08D1264A237A116886
:10E260005B1813603268244B1A6055E709281CD1EB
:10E27000204B217A1A6889181960204B1B78002BD3
:10E2800000D149E71E4C2388013B9BB22380002B21
:10E2900000D041E7280001F003F8002801D0FDF785
:10E2A000B3FF184B1B88238036E73068FFF726FA48
:10E2B000011E02D02800FFF724FC3900ADE701223F
:10E2C0000E4B1A708B880F4A13800D4A138023E778
:10E2D00000230A4A13700B4AF8E7064B2800196816
:10E2E00000F0A4FF07E7C04671300020783000201E
:10E2F00080300020683000207C300020703000200A
:10E300006E3000206C30002070B501230D00002815
:10E3100015D109680E23002911D00E4CA14207D057
:10E32000621A3B2A11D80B0001393C338B4208D1C9
:10E3300000223C212000FEF7D9FD0023A0872B609E
:10E3400070BD18789854013BF0E73C22200001F0A2
:10E3500006FBEDE7803F00200323064A5B429E4513
:10E3600002D1EFF3098101E0EFF3088188690238F7
:10E370000078104709E3030070B50E23061E11D084
:10E38000094C00223C212000FEF7B0FDA58F0B2395
:10E39000854207D13C222100300001F0E0FA002341
:10E3A0000135A587180070BD803F002013DF70473E
:10E3B00018DF7047F0B50600A120A024C00080251A
:10E3C00000238446134FE4052D036046255030009A
:10E3D0000138C046C046C046C046C046C046C046DA
:10E3E000C046C046C046C046C046F1D1E55108000F
:10E3F0000138C046C046C046C046C046C046C046BA
:10E40000C046C046C046C046C046F1D101339A421C
:10E41000DBD1F0BD0C05000010B58AB004000C2261
:10E42000002102A8FDF7E6FE022304221E496846E9
:10E43000019301F094FA002C06D001A8FFF7B8FF71
:10E44000002801D0FDF7E0FEF0208002FFF7AEFFCC
:10E45000002801D0FDF7D8FE144B48221449684625
:10E4600001F010F9002801D0FDF7CEFE012105AC26
:10E470002200080001F066F9002801D0FDF7C4FE73
:10E480000123227B20001343237301F073F900283A
:10E4900001D0FDF7B9FE074801F03AF9002801D094
:10E4A000FDF7B2FE0AB010BD95F90300A1F7030015
:10E4B0009C330020B9E4030010B5FFF727FA10BD24
:10E4C00010B5054A14210820FDF7BAFE002801D036
:10E4D000FDF79AFE10BDC046843000208022F8B5BA
:10E4E000984BD205D458B12C01D10021D150A02392
:10E4F0000321954ADB059950A1228021D20009030E
:10E500009950924901220800FFF754FFF023904AE6
:10E510009B0212689A4202D00020FDF775FE80230C
:10E520005B051A698023DB009A4202D00020FDF7C8
:10E530006BFE88480268531C19D10121864B874A1B
:10E5400099508021C9000C005D58002DFCD08449F1
:10E550000160002199501A59002AFCD0BFF34F8F57
:10E56000804B814ADA60BFF34F8FC046FDE77749A1
:10E5700001220800FFF71EFF7C4B7D4A0521002089
:10E58000FEF7C0F9002801D0FDF73EFEA027B13C00
:10E590002600784B6D49784AFF05FA5008000122A1
:10E5A000FFF708FFFEF7D4FB684901220800FFF7D8
:10E5B00001FF731E9E41FEF717FCF6B26F4D002857
:10E5C00000D1A4E06E4903220800FFF7F3FE5F4884
:10E5D0000138C046C046C046C046C046C046C046D8
:10E5E000C046C046C046C046C046F1D180231B038A
:10E5F0007B51FEF708FC002801D0FDF705FE300036
:10E60000FFF70AFFFFF75CFFFEF71EFC002801D0B2
:10E61000FDF7FAFDA022A1238021D205DB0009032A
:10E62000D150A022A223D205DB00D358554E9B0324
:10E6300000D4AFE0002C00D1ACE03068FEF7E0FA87
:10E640000622002800D1A6E00C224F494F48FFF7D0
:10E65000B1FE3E480138C046C046C046C046C0462E
:10E66000C046C046C046C046C046C046C046F1D1BE
:10E670003068FEF7C5FA00281AD0FEF7B5FB00286F
:10E6800016D13F490A220800FFF794FE2F480138AF
:10E69000C046C046C046C046C046C046C046C0464A
:10E6A000C046C046C046C046F1D13068FEF776FB92
:10E6B000A0238022A121DB051203C9005A5034484F
:10E6C0000138C046C046C046C046C046C046C046E7
:10E6D000C046C046C046C046C046F1D12C485A513B
:10E6E0000138C046C046C046C046C046C046C046C7
:10E6F000C046C046C046C046C046F1D1BFF34F8FAA
:10E70000184B194ADA60BFF34F8FC046FDE71C492A
:10E7100004220800FFF74EFE0C480138C046C046F0
:10E72000C046C046C046C046C046C046C046C046B9
:10E73000C046C046F1D13000FFF76EFEFFF7C0FEC5
:10E740006FE7C0461C0500004C070000E093040082
:10E75000141000100810001000E001400405000033
:10E7600000FFFFFF00ED00E00400FA05F9CA030016
:10E77000D4310020440700000C0003000C05000009
:10E78000400D03000830000080380100A086010021
:10E7900020A10700052211490800FFF70BFE1048D1
:10E7A0000138C046C046C046C046C046C046C04606
:10E7B000C046C046C046C046C046F1D1A02480270E
:10E7C000E4053F036751FEF7DDFA002801D0FDF7AD
:10E7D0001BFDA123DB00E75036E7C046400D0300D8
:10E7E000E093040071DF704772DF704779DF704794
:10E7F0007DDF704765DF7047F0B5002506002F000C
:10E8000089B001930EAB10CB04911B880392059342
:10E81000238802933388BB420EDC0020854209D056
:10E820002388029A013B9B1A9BB2FF2B3ED8019A88
:10E830000299535409B0F0BD7368B9005918042205
:10E8400007A801F08CF806AB0022D91C07A8FFF737
:10E85000D1FF0028EED106ABDB78039A934223D197
:10E8600069426941238849009A18521805998A42D9
:10E870001CDC002D08D10133019A04999BB223803E
:10E88000D154238801332380019B228807A89A183A
:10E8900006ABDD1C2900FFF7ADFF0028CAD12B789D
:10E8A000012522889B1823800137B3E70C20C1E79C
:10E8B000F0B51D0085B00AAB40CB03921F88022241
:10E8C000019700962B000400FFF796FF002807D160
:10E8D000019700962B00102203992000FFF78CFF70
:10E8E00005B0F0BDF0B5138887B002930023138004
:10E8F000436B07000D001400002B15D0029A022A6A
:10E9000001D80C2086E11A7802230B70112123888C
:10E9100001339BB22380E954238801339BB22380C7
:10E92000EA542388013323803A6B002A1CD02388C1
:10E930000298190012318142E3D81121E954238849
:10E94000013901339BB22380E954238801332380AA
:10E950001300013A0F3318782188013B685421884D
:10E96000013121809342F6D13B002E3318780028E4
:10E9700021D023880299DA1C8A42C2D802221C21A3
:10E98000EA54238801339BB22380E9542388411E33
:10E9900001339BB223800720032900D93AE1080004
:10E9A00000F038FF04002501050027010022EA5489
:10E9B0002388013323803B002D331B78002B2DD07F
:10E9C0002388029A09330C20934200D922E104AE35
:10E9D0003000FFF707FF002800D01BE108220921C3
:10E9E0002388EA542388133201339BB22380EA54EC
:10E9F000208802AB013080B22080153AC91828184F
:10EA000000F0ADFF2388327806339BB22380002AC2
:10EA100000D0F0E0EA54238801332380BB78002B38
:10EA200022D02388029A04330C20934200D9F1E0CB
:10EA300004AE3000FFF7DAFE002800D0EAE003223F
:10EA40002388EA542388163201339BB22380EA5488
:10EA50002388328801339BB22380EB181A70120A84
:10EA60005A70238802332380FA78002A15D023882D
:10EA70000298D91C814200D943E70221E954238836
:10EA8000013901339BB22380E95423885B189BB280
:10EA90002380EA5423885B1823807A68002A17D0E1
:10EAA00023880298D91C814200D92AE702211278D2
:10EAB000E9542388083101339BB22380E954238829
:10EAC00052B201339BB22380EA542388013323805E
:10EAD0003B89002B00D090E03B8A002B0CD0380003
:10EAE000029B0094019307222B0003211030FFF7B3
:10EAF000DFFE002800D08DE03B8B002B0CD03800CF
:10EB0000029B0094019315222B0014211830FFF76B
:10EB1000CFFE002800D07DE03B6A002B00D07BE0D8
:10EB20007E6A002E2ED0B3882188981C8A1C121869
:10EB30009446029A944500D9E3E6FE2800D9E0E61F
:10EB4000FF2203336B54238801339BB22380EA54A2
:10EB5000238801339BB223803288EB181A70120A83
:10EB60005A702088023080B22080B288002A09D0F2
:10EB7000B168002959D0281800F0F1FE2388B28826
:10EB80009B1823803B002C331B78002B00D083E0A4
:10EB90003B78181E3ED03A880720012A3AD02288B6
:10EBA0000299901C884200D9ABE6012B06D17B78F4
:10EBB000029902339B18994200D2A2E6029E02AB50
:10EBC000023EB61AB6B2281804A91E81FFF710FE3D
:10EBD00000281FD13B78022B00D09AE002AB1B89A2
:10EBE0000922B34200D89EE002AB1E819AE00122C6
:10EBF000DDE60322DBE601220CE73800029B0094ED
:10EC0000019306222B0002210830FFF751FE002855
:10EC100000D161E707B0F0BD26880299B21D8A4293
:10EC200000D96EE61988052901D80720F2E7464881
:10EC30000A1892B20392454A9446039A6245F4D95F
:10EC40005A88052AF1D9101880B26045EDD940489C
:10EC5000814203D0824201D09142E6D8052212219E
:10EC6000AA552288013292B22280A9542288013208
:10EC700092B222801988AA181170090A517022884C
:10EC8000023292B222805988AA181170090A517072
:10EC900023880233238043E7BB6A002BC5D00023BF
:10ECA00003933B002C331B78039A934200D86FE701
:10ECB0000C26039B5E43BB6A9E19B3889A1CFE2AEE
:10ECC00000D91EE622880333AB5416222388013371
:10ECD0009BB22380EA54238801339BB2238032887D
:10ECE000EB181A70120A5A702088023080B2208005
:10ECF000B288002A09D0B168002996D0281800F0FF
:10ED00002EFE2388B2889B182380039B0133DBB23D
:10ED1000C6E7012B00D067E77B789E4200D263E70D
:10ED200002AA1381082202AB1989FE2900D9E8E55D
:10ED300023880131E954238801339BB22380EA54AC
:10ED400023885918218065E77FF3FFFF7DF30000DA
:10ED5000FFFF0000F0B593B06A461F2301AE971D78
:10ED60000D0033803B8000281FD0C3785B0702D49E
:10ED7000072013B0F0BD320002A9FFF7B3FD02ACCB
:10ED80000028F6D1002D13D0EB78002BF0D13A00FB
:10ED90000AA92800FFF7A6FD0AAA0028E9D13B78B6
:10EDA00031782000FFF720FDE3E730800400E9E739
:10EDB0003D802A00F3E775DF704776DF70477ADF22
:10EDC00070477BDF7047000013B5164B1888164B51
:10EDD000984211D0154A164C13780133DBB21370E8
:10EDE000217B994209D31349FFF7E5FF002803D09F
:10EDF000A369002B00D0984713BD00231370237C18
:10EE0000002B08D03B21FFF7D8FF002803D0A369CF
:10EE1000002B00D098476369002BEDD0002201A899
:10EE20000270E8E7E6330020FFFF000034340020E2
:10EE3000E83300202C34002037B5184B184A5B8883
:10EE40001188184C184D994208D852889A4205D317
:10EE50006369002B1ED100232B7037BD2B78002B4C
:10EE600006D06369002BF6D0002201A802700DE0E5
:10EE70000E4B1B78002B0BD1616800220C48FDF76C
:10EE8000C1FD0028E7D0A369002BE4D09847E2E752
:10EE9000A168F2E701A80122E8E7C0462434002077
:10EEA0002C340020E8330020E433002034340020E8
:10EEB00004340020144902000B0070B532CA32C37A
:10EEC00032CA32C31268114C1A600022104B01681A
:10EED0001A70914214D00832200000F040FD20004A
:10EEE000FFF76DFF00280AD101220021094B524291
:10EEF0001A80094B094A0A481970FDF76BFD70BD6D
:10EF00002000FFF75EFFEDE7E83300202C340020FF
:10EF1000E4330020E633002034340020C9ED030040
:10EF20009CF9030010B50248FDF7AEFD10BDC046C8
:10EF30000434002010B50388112B2CD002D8102BDC
:10EF400016D010BD122B38D0502BFAD11E4CC188D0
:10EF5000E2899142F5D1038A022BF2D1837CDB074F
:10EF600016D41A48FDF790FD0028EAD0A36920E0E6
:10EF700001008288164B18311A801648082200F0CA
:10EF8000EEFC0022144B1A700F4BDB899342D8D150
:10EF9000FFF752FFD5E701220D4B52421A800022A3
:10EFA0000D4B0A481A70FDF76FFD0028C9D0064BBB
:10EFB0009B69002BC5D09847C3E7010008220831A0
:10EFC000044800F0CCFCE3E7E833002004340020E0
:10EFD000E63300202434002034340020A0DF7047C2
:10EFE000A2DF7047A5DF7047A6DF7047A8DF704734
:10EFF00063DF7047F0B599B0019002910E240028AC
:10F0000000D103E1002900D100E14B680393002BFC
:10F0100000D1FBE001235B42038010227D4908A858
:10F0200000F09DFC0A217C4B06AD2B8004ABC91877
:10F0300008A8FFF7DDFF041E00D0E7E0019B2900D0
:10F040001A1D0120FFF7CAFF041E00D0DEE0AB78D6
:10F05000019A11AD937101001C222800FDF7CAF836
:10F0600004232A786C6013432B70019BEC602C61A5
:10F070006C61AC619B7904AA9373684B05AE938174
:10F08000210003223000FDF7B5F8002301220621FC
:10F090003370103313437370B3780CAF8B43043960
:10F0A0000B4306318B4308318B431343210013324A
:10F0B0003800B370FDF79EF807AB0C9314237E6005
:10F0C0000E94BB81019B3C6198883A00083329006B
:10F0D000FFF786FF041E00D098E001001C222800E4
:10F0E000FDF788F808222B786C60134392181343BD
:10F0F0002B70019BEC602C616C61AC619B7904A866
:10F100008373474B210083810D3A3000FDF772F87D
:10F1100000230F20012110223370737883430B43A7
:10F12000034013437370B3780938834304380343AF
:10F1300007318B43134307390B4304322100380056
:10F14000B370FDF757F807AB0C9317237E600E944E
:10F15000BB81019B3C6198883A0010332900FFF77E
:10F160003FFF041E52D101001C222800FDF742F887
:10F1700002222B786C6013432B70019BEC602C6196
:10F180006C61AC619B7904A98B73264B01328B8136
:10F1900030002100FDF72EF80F21012033780622E0
:10F1A0008B4303430B4009180B43337000237370E8
:10F1B000B3789343043A1343063293438B43034398
:10F1C00021000C323800B370FDF714F8022207ABAF
:10F1D0003B60029B7E600E923B61019BBA819888E6
:10F1E0003A0020332900FFF7FBFE041E0ED1029BDC
:10F1F0005B680393039A019B9A62029B9B68002BB6
:10F2000001D0019AD3620122074B1A70200019B075
:10F21000F0BDC046A0F90300301500003215000013
:10F22000311500003415000035340020F0B506001B
:10F2300087B00E20002E2AD03288164B06389A420C
:10F2400025D0154B1B78002B21D0144C080AE170F7
:10F250002071080C090E0723A171694610220127AD
:10F2600002ADCB8060710021280063702270A7700E
:10F27000FCF7C0FF338A30882B800023AB806B46BD
:10F2800029000633AF70AB60EC60FFF7ADFE07B04E
:10F29000F0BDC046FFFF00003534002036340020AA
:10F2A000F0B5060087B00E20002E28D03288154B0E
:10F2B00006389A4223D0144B1B78002B1FD0112301
:10F2C000124D02AC2B700B0AAB700B0CEB706B4643
:10F2D0009F1D05236970090E29711022002120004D
:10F2E0003B80FCF787FF338A308823800123A3709B
:10F2F00000232100A380A760E560FFF775FE07B03B
:10F30000F0BDC046FFFF0000353400203634002039
:10F31000F0B5050087B00E20002D23D02C88124BAD
:10F3200006389C421ED0114B1B78002B1AD0104E71
:10F330001023717069468F1D032102AC3980B270B1
:10F3400000211A0020003370FCF754FF2B8A288814
:10F3500023800123A37000232100A380A760E6601F
:10F36000FFF742FE07B0F0BDFFFF0000353400207C
:10F3700036340020F0B5040089B00D0000280AD012
:10F38000002908D0826A002A05D00B88112B54D09E
:10F3900003D8102B41D009B0F0BD502B40D0512BD9
:10F3A000F9D18A79022AF6D10A89038A9A42F2D1DE
:10F3B0008B7B043B022BEED90223012204AF3B706E
:10F3C000BB7901AE13430A00BB710B8A14323B8137
:10F3D0004B8A3000FA60002108227B81FCF70AFF8B
:10F3E000022301936B46A18A208832007360FFF7E5
:10F3F000F9FD002824D0E36A002B00D09847FE23B3
:10F400002088FF333900BB80FFF7F0FD0028C2D011
:10F41000E36A002BBFD09847BDE78B882380BAE70B
:10F42000C98803899942B6D1082304A90B702B8A95
:10F4300012350B724D609047ADE701235B42EDE75B
:10F440006B4601215A781B781202134322880B4223
:10F45000D5D0B88039001000FFF7C8FD0028D7D1FB
:10F46000297D481E07283CD800F0CAF9041820233B
:10F4700025273929002333706B8A012B05D80622F2
:10F4800001212000FFF744FFC0E701231535337247
:10F490007560A36A3100200098477CE70123337030
:10F4A0006A8A9A42F2D806220221EAE702233370DE
:10F4B000EFE70323FBE70423F9E70523F7E76B8A6C
:10F4C000022B02D803220821DBE7AA7D6B7D120202
:10F4D0001343B38001D10733E9E70623E7E70923A4
:10F4E000E5E70322CDE7000010B52D4B1A68D2B234
:10F4F000012A0FD12B4A126812070BD12A4AE024A5
:10F500001168F0220800104021422DD127490968D6
:10F5100011422CD01A68D2B2012A12D121490968AD
:10F5200009070ED1F020204909680140402908D17F
:10F530001E490968014204D18020C121C005C900CB
:10F5400042501B68DBB2012B0DD1164B1B681B0709
:10F5500009D1154B1A68F0231A40A02A0FD1134A7B
:10F5600012681A420ED010BD3028CFD0D2E7104A10
:10F57000104911608021104A09021160CAE7D02A9F
:10F58000F1D1ECE70D4B1A68012A04D00C4A1A603D
:10F590001A68012AFCD1C0220A4B1A60E3E7C04670
:10F5A000E00F00F0E40F00F0E80F00F0EC0F00F0C7
:10F5B00004050040DFFF07C0186C004000EC064067
:10F5C0007593000014EC064052DF704710DF70475F
:10F5D00060DF704761DF704710B5FCF723FE10BD98
:10F5E000F0B5234B85B01B78DBB20093002B18D00D
:10F5F000204E214F33685A425A41D2B201923A68A2
:10F60000002A14D1009C002B0BD01FE003983B680C
:10F6100098472C0017E028003368984725E0002C15
:10F6200005D005B0F0BD002CFBD1009C019403A8CF
:10F63000FFF7CAFF009C0500052804D00028E5D08C
:10F64000FCF7E2FD0024019B002BE8D10B4B03A942
:10F650001B880B800A4B1D682800FFF7BBFF05289D
:10F66000E1D00028D7D0FCF7CFFD002CEED1DDE7AC
:10F6700048340020403400204C3400203E34002028
:10F680005034002070B504000720002920D08D07D9
:10F690001ED112480160124920000A80114A124905
:10F6A0001360FFF793FF002812D101220F4B10497E
:10F6B0001A70C5239B00CB589B0D13420BD080239F
:10F6C0000C4ADB035468002C03D011680B43136011
:10F6D00070BD0B60FCE70848FAE7C04650340020D4
:10F6E0003E34002044340020D9F503004834002083
:10F6F00000E100E054340020022000000E23002826
:10F7000002D0024B186000231800704740340020DC
:10F710000E23002802D0024B186000231800704707
:10F720004C34002010B5064B1B68002B05D09847C1
:10F73000002801D0FCF768FD10BDFFF751FFFBE783
:10F740004434002070B5140005000E00142200217E
:10F750002000FCF74FFD002201232261227B238041
:10F760009A43227326726572002D00D0A372002086
:10F7700070BD000007B5044B69460193019B0093DF
:10F78000FFF726FF0EBDC046002C002010B5002953
:10F7900002D00020FCF738FDFFF722FF10BD00006B
:10F7A000002110B5024A0800FCF770FD10BDC046EC
:10F7B0008DF7030003210A4802680A4302600948E2
:10F7C00002680A4302600849084A094B9B1A03DD94
:10F7D000043BC858D050FBDCFFF786FEFCF794FCD6
:10F7E0002405004054050040BCF90300002C002013
:10F7F000702C0020FEE7FEE7FEE7FEE7FEE7FEE7EF
:10F8000002B4714649084900095C49008E4402BCB3
:10F810007047C04603B47146490840004900095A80
:10F8200049008E4403BC7047002243088B4274D3C6
:10F8300003098B425FD3030A8B4244D3030B8B42F1
:10F8400028D3030C8B420DD3FF22090212BA030CFA
:10F850008B4202D31212090265D0030B8B4219D3DB
:10F8600000E0090AC30B8B4201D3CB03C01A5241FB
:10F87000830B8B4201D38B03C01A5241430B8B4243
:10F8800001D34B03C01A5241030B8B4201D30B032C
:10F89000C01A5241C30A8B4201D3CB02C01A524153
:10F8A000830A8B4201D38B02C01A5241430A8B4216
:10F8B00001D34B02C01A5241030A8B4201D30B02FF
:10F8C000C01A5241CDD2C3098B4201D3CB01C01A19
:10F8D000524183098B4201D38B01C01A5241430923
:10F8E0008B4201D34B01C01A524103098B4201D311
:10F8F0000B01C01A5241C3088B4201D3CB00C01A7E
:10F90000524183088B4201D38B00C01A52414308F5
:10F910008B4201D34B00C01A5241411A00D201461A
:10F92000524110467047FFE701B5002000F006F88D
:10F9300002BDC0460029F7D076E770477047C04641
:10F9400030B50024A24201D1002005E0035D651C12
:10F950000C5DA34201D0181B30BD2C00F2E7002340
:10F9600010B59A4200D110BDCC5CC4540133F8E705
:10F97000F8B5C046F8BC08BC9E467047F8B5C0460E
:10F98000F8BC08BC9E467047002C0020F82C0020D4
:10F9900044425754000100000700000004340020D6
:10F9A00023D1BCEA5F782315DEEF121200000000BD
:04F9B0000000000053
:08F9B40054C7FF7F01000000B1
:10F9BC00000000000000000000000000000000003B
:10F9CC00000000000000000000000000000000002B
:10F9DC00000000000000000000000000000000001B
:10F9EC00000000000000000000000000000000000B
:10F9FC0000000000000000000000000000000000FB
:10FA0C0000000000000000000000000000000000EA
:10FA1C00FFFF000032000000E9C00300C1C003007A
:020000020000FC
:020000041000EA
:0410140000C0030015
:040000033000F7B51D
:00000001FF
